{
  "contractName": "Arts",
  "abi": [
    {
      "inputs": [],
      "stateMutability": "nonpayable",
      "type": "constructor"
    },
    {
      "inputs": [
        {
          "internalType": "uint256",
          "name": "",
          "type": "uint256"
        }
      ],
      "name": "arts",
      "outputs": [
        {
          "internalType": "string",
          "name": "id",
          "type": "string"
        },
        {
          "internalType": "string",
          "name": "titre",
          "type": "string"
        },
        {
          "internalType": "string",
          "name": "description",
          "type": "string"
        },
        {
          "internalType": "string",
          "name": "date",
          "type": "string"
        },
        {
          "internalType": "string",
          "name": "image",
          "type": "string"
        },
        {
          "internalType": "uint256",
          "name": "price",
          "type": "uint256"
        },
        {
          "internalType": "address",
          "name": "owner",
          "type": "address"
        }
      ],
      "stateMutability": "view",
      "type": "function",
      "constant": true
    },
    {
      "inputs": [],
      "name": "owner",
      "outputs": [
        {
          "internalType": "address",
          "name": "",
          "type": "address"
        }
      ],
      "stateMutability": "view",
      "type": "function",
      "constant": true
    },
    {
      "inputs": [
        {
          "internalType": "string",
          "name": "titre",
          "type": "string"
        },
        {
          "internalType": "string",
          "name": "description",
          "type": "string"
        },
        {
          "internalType": "string",
          "name": "date",
          "type": "string"
        },
        {
          "internalType": "string",
          "name": "image",
          "type": "string"
        },
        {
          "internalType": "uint256",
          "name": "price",
          "type": "uint256"
        },
        {
          "internalType": "address",
          "name": "utilisateur",
          "type": "address"
        },
        {
          "internalType": "string",
          "name": "id",
          "type": "string"
        }
      ],
      "name": "mintArt",
      "outputs": [],
      "stateMutability": "nonpayable",
      "type": "function"
    },
    {
      "inputs": [
        {
          "internalType": "uint256",
          "name": "_index",
          "type": "uint256"
        }
      ],
      "name": "buyArt",
      "outputs": [],
      "stateMutability": "payable",
      "type": "function",
      "payable": true
    }
  ],
  "bytecode": "0x6080604052336000806101000a81548173ffffffffffffffffffffffffffffffffffffffff021916908373ffffffffffffffffffffffffffffffffffffffff16021790555060006001553480156200005657600080fd5b50620000616200031d565b6040518060400160405280600181526020017f300000000000000000000000000000000000000000000000000000000000000081525081600001819052506040518060400160405280600281526020017f787800000000000000000000000000000000000000000000000000000000000081525081602001819052506040518060400160405280600281526020017f787800000000000000000000000000000000000000000000000000000000000081525081604001819052506040518060400160405280600281526020017f787800000000000000000000000000000000000000000000000000000000000081525081606001819052506040518060400160405280600281526020017f7878000000000000000000000000000000000000000000000000000000000000815250816080018190525067016345785d8a00008160a001818152505060008160c0019073ffffffffffffffffffffffffffffffffffffffff16908173ffffffffffffffffffffffffffffffffffffffff1681525050600281908060018154018082558091505060019003906000526020600020906007020160009091909190915060008201518160000190805190602001906200022c92919062000370565b5060208201518160010190805190602001906200024b92919062000370565b5060408201518160020190805190602001906200026a92919062000370565b5060608201518160030190805190602001906200028992919062000370565b506080820151816004019080519060200190620002a892919062000370565b5060a0820151816005015560c08201518160060160006101000a81548173ffffffffffffffffffffffffffffffffffffffff021916908373ffffffffffffffffffffffffffffffffffffffff160217905550505060016000815480929190620003119062000459565b9190505550506200050c565b6040518060e00160405280606081526020016060815260200160608152602001606081526020016060815260200160008152602001600073ffffffffffffffffffffffffffffffffffffffff1681525090565b8280546200037e90620004d6565b90600052602060002090601f016020900481019282620003a25760008555620003ee565b82601f10620003bd57805160ff1916838001178555620003ee565b82800160010185558215620003ee579182015b82811115620003ed578251825591602001919060010190620003d0565b5b509050620003fd919062000401565b5090565b5b808211156200041c57600081600090555060010162000402565b5090565b7f4e487b7100000000000000000000000000000000000000000000000000000000600052601160045260246000fd5b6000819050919050565b600062000466826200044f565b91507fffffffffffffffffffffffffffffffffffffffffffffffffffffffffffffffff8214156200049c576200049b62000420565b5b600182019050919050565b7f4e487b7100000000000000000000000000000000000000000000000000000000600052602260045260246000fd5b60006002820490506001821680620004ef57607f821691505b60208210811415620005065762000505620004a7565b5b50919050565b610df2806200051c6000396000f3fe60806040526004361061003f5760003560e01c806369adf6c9146100445780638da5cb5b1461006d578063e57a104a14610098578063fc7a900b146100db575b600080fd5b34801561005057600080fd5b5061006b60048036038101906100669190610a06565b6100f7565b005b34801561007957600080fd5b506100826102b2565b60405161008f9190610b43565b60405180910390f35b3480156100a457600080fd5b506100bf60048036038101906100ba9190610b5e565b6102d6565b6040516100d29796959493929190610c22565b60405180910390f35b6100f560048036038101906100f09190610b5e565b6105f0565b005b6100ff610722565b818160000181905250878160200181905250868160400181905250858160600181905250848160800181905250838160a001818152505067016345785d8a00008160a0018181525050828160c0019073ffffffffffffffffffffffffffffffffffffffff16908173ffffffffffffffffffffffffffffffffffffffff1681525050600281908060018154018082558091505060019003906000526020600020906007020160009091909190915060008201518160000190805190602001906101c8929190610775565b5060208201518160010190805190602001906101e5929190610775565b506040820151816002019080519060200190610202929190610775565b50606082015181600301908051906020019061021f929190610775565b50608082015181600401908051906020019061023c929190610775565b5060a0820151816005015560c08201518160060160006101000a81548173ffffffffffffffffffffffffffffffffffffffff021916908373ffffffffffffffffffffffffffffffffffffffff1602179055505050600160008154809291906102a390610ce3565b91905055505050505050505050565b60008054906101000a900473ffffffffffffffffffffffffffffffffffffffff1681565b600281815481106102e657600080fd5b906000526020600020906007020160009150905080600001805461030990610d5b565b80601f016020809104026020016040519081016040528092919081815260200182805461033590610d5b565b80156103825780601f1061035757610100808354040283529160200191610382565b820191906000526020600020905b81548152906001019060200180831161036557829003601f168201915b50505050509080600101805461039790610d5b565b80601f01602080910402602001604051908101604052809291908181526020018280546103c390610d5b565b80156104105780601f106103e557610100808354040283529160200191610410565b820191906000526020600020905b8154815290600101906020018083116103f357829003601f168201915b50505050509080600201805461042590610d5b565b80601f016020809104026020016040519081016040528092919081815260200182805461045190610d5b565b801561049e5780601f106104735761010080835404028352916020019161049e565b820191906000526020600020905b81548152906001019060200180831161048157829003601f168201915b5050505050908060030180546104b390610d5b565b80601f01602080910402602001604051908101604052809291908181526020018280546104df90610d5b565b801561052c5780601f106105015761010080835404028352916020019161052c565b820191906000526020600020905b81548152906001019060200180831161050f57829003601f168201915b50505050509080600401805461054190610d5b565b80601f016020809104026020016040519081016040528092919081815260200182805461056d90610d5b565b80156105ba5780601f1061058f576101008083540402835291602001916105ba565b820191906000526020600020905b81548152906001019060200180831161059d57829003601f168201915b5050505050908060050154908060060160009054906101000a900473ffffffffffffffffffffffffffffffffffffffff16905087565b60015481108015610602575060008110155b61060b57600080fd5b600073ffffffffffffffffffffffffffffffffffffffff166002828154811061063757610636610d8d565b5b906000526020600020906007020160060160009054906101000a900473ffffffffffffffffffffffffffffffffffffffff1673ffffffffffffffffffffffffffffffffffffffff161461068957600080fd5b6002818154811061069d5761069c610d8d565b5b9060005260206000209060070201600501543410156106bb57600080fd5b33600282815481106106d0576106cf610d8d565b5b906000526020600020906007020160060160006101000a81548173ffffffffffffffffffffffffffffffffffffffff021916908373ffffffffffffffffffffffffffffffffffffffff16021790555050565b6040518060e00160405280606081526020016060815260200160608152602001606081526020016060815260200160008152602001600073ffffffffffffffffffffffffffffffffffffffff1681525090565b82805461078190610d5b565b90600052602060002090601f0160209004810192826107a357600085556107ea565b82601f106107bc57805160ff19168380011785556107ea565b828001600101855582156107ea579182015b828111156107e95782518255916020019190600101906107ce565b5b5090506107f791906107fb565b5090565b5b808211156108145760008160009055506001016107fc565b5090565b6000604051905090565b600080fd5b600080fd5b600080fd5b600080fd5b6000601f19601f8301169050919050565b7f4e487b7100000000000000000000000000000000000000000000000000000000600052604160045260246000fd5b61087f82610836565b810181811067ffffffffffffffff8211171561089e5761089d610847565b5b80604052505050565b60006108b1610818565b90506108bd8282610876565b919050565b600067ffffffffffffffff8211156108dd576108dc610847565b5b6108e682610836565b9050602081019050919050565b82818337600083830152505050565b6000610915610910846108c2565b6108a7565b90508281526020810184848401111561093157610930610831565b5b61093c8482856108f3565b509392505050565b600082601f8301126109595761095861082c565b5b8135610969848260208601610902565b91505092915050565b6000819050919050565b61098581610972565b811461099057600080fd5b50565b6000813590506109a28161097c565b92915050565b600073ffffffffffffffffffffffffffffffffffffffff82169050919050565b60006109d3826109a8565b9050919050565b6109e3816109c8565b81146109ee57600080fd5b50565b600081359050610a00816109da565b92915050565b600080600080600080600060e0888a031215610a2557610a24610822565b5b600088013567ffffffffffffffff811115610a4357610a42610827565b5b610a4f8a828b01610944565b975050602088013567ffffffffffffffff811115610a7057610a6f610827565b5b610a7c8a828b01610944565b965050604088013567ffffffffffffffff811115610a9d57610a9c610827565b5b610aa98a828b01610944565b955050606088013567ffffffffffffffff811115610aca57610ac9610827565b5b610ad68a828b01610944565b9450506080610ae78a828b01610993565b93505060a0610af88a828b016109f1565b92505060c088013567ffffffffffffffff811115610b1957610b18610827565b5b610b258a828b01610944565b91505092959891949750929550565b610b3d816109c8565b82525050565b6000602082019050610b586000830184610b34565b92915050565b600060208284031215610b7457610b73610822565b5b6000610b8284828501610993565b91505092915050565b600081519050919050565b600082825260208201905092915050565b60005b83811015610bc5578082015181840152602081019050610baa565b83811115610bd4576000848401525b50505050565b6000610be582610b8b565b610bef8185610b96565b9350610bff818560208601610ba7565b610c0881610836565b840191505092915050565b610c1c81610972565b82525050565b600060e0820190508181036000830152610c3c818a610bda565b90508181036020830152610c508189610bda565b90508181036040830152610c648188610bda565b90508181036060830152610c788187610bda565b90508181036080830152610c8c8186610bda565b9050610c9b60a0830185610c13565b610ca860c0830184610b34565b98975050505050505050565b7f4e487b7100000000000000000000000000000000000000000000000000000000600052601160045260246000fd5b6000610cee82610972565b91507fffffffffffffffffffffffffffffffffffffffffffffffffffffffffffffffff821415610d2157610d20610cb4565b5b600182019050919050565b7f4e487b7100000000000000000000000000000000000000000000000000000000600052602260045260246000fd5b60006002820490506001821680610d7357607f821691505b60208210811415610d8757610d86610d2c565b5b50919050565b7f4e487b7100000000000000000000000000000000000000000000000000000000600052603260045260246000fdfea264697066735822122099b25a1da878cba80cd9b0c28497a706aa21c8415ddb27d5bcf4f2b7bc15177b64736f6c634300080b0033",
  "immutableReferences": {},
  "source": "// SPDX-License-Identifier: GPL-3.0\npragma solidity >=0.4.22 <0.9.0;\n\n\n\ncontract Arts {\n  address public owner = msg.sender;\n\n  struct Art {\n     string id;\n    string titre;\n    string description;\n    string date;\n    string image;\n    uint256 price;\n    address owner;\n  }\n\n\nuint256  TOTAL_ARTS=0;\nArt[] public arts;\n\n\n\n\n\n  constructor() { \nArt memory art; \nart.id=\"0\";\nart.titre=\"xx\";\nart.description=\"xx\";\nart.date=\"xx\";\nart.image=\"xx\";\nart.price=1e17;\nart.owner=address(0x0);\narts.push(art);\nTOTAL_ARTS++;\n  }\n  \n\n\n\n\n  function mintArt(string memory titre ,string memory description,string memory date,string memory image,uint256 price,address utilisateur,string memory id ) public  \n  {\nArt memory art; \nart.id=id;\nart.titre=titre;\nart.description=description;\nart.date=date;\nart.image=image;\nart.price=price;\nart.price=1e17;\nart.owner=utilisateur;\narts.push(art);\nTOTAL_ARTS++;\n  }\n\n\n\n  function buyArt(uint256 _index) external payable {\n    require(_index < TOTAL_ARTS && _index >= 0);\n    require(arts[_index].owner == address(0x0));\n    require(msg.value >= arts[_index].price);\n    arts[_index].owner = msg.sender;\n  }\n}",
  "sourcePath": "D:\\Desktop\\School\\NodeDapps\\artidapp1\\contracts\\Arts.sol",
  "compiler": {
    "name": "solc",
    "version": "0.8.11+commit.d7f03943.Emscripten.clang"
  },
  "schemaVersion": "3.4.6",
  "updatedAt": "2022-04-01T21:46:31.716Z",
  "networkType": "ethereum",
  "devdoc": {
    "kind": "dev",
    "methods": {},
    "version": 1
  },
  "userdoc": {
    "kind": "user",
    "methods": {},
    "version": 1
  }
}